:020000020000FC
:10000000AFE5B2E0ADBFBEBF80E184BB7AD091E086
:100010009093600008D09E99FECF18D0FFCFAD9985
:10002000FECFAC980895FBDF82E08093620085E00C
:100030008093630081E08093640080E380937E007E
:1000400081E080937F0034D1D8D00895E8DF82E04A
:100050008093620083E08093630081E0809364007A
:1000600080E380937E0081E080937F0021D1C5D022
:100070000895D5DF82E08093620084E0809363007E
:1000800080E08093640080E380937E0081E0809331
:100090007F000ED1B2D00895C2DF81E0809362006C
:1000A00082E08093630080E380937E0081E0809310
:1000B0007F00FED0A2D0A1D00895B1DF81E080936F
:1000C000620082E08093630080E88093640088E0AF
:1000D0008093650083E08093660083E080936700EF
:1000E00081E08093680080E380937E0081E08093CC
:1000F0007F00DED082D0089598E99AB993E399B948
:10010000089598E19AB998E099B988988998909A51
:10011000919A08955F9BFECF9CB100000000000003
:1001200008955D9BFECF9CB988988998909A919A82
:1001300008950F9305D0102F0F91029501D00895C7
:100140000F700A3014F4005D0895095C08956F93F0
:1001500060E46A95F1F76F9108956F9361E060E054
:10016000F6DF6A95E9F76F910895F7DFF6DF0895F6
:100170006F9360E4F2DF6A95E9F76F9108959F93BA
:100180008F9380917B00980F90937B008F919F912C
:10019000089590936100A2E6B0E0809161009D9384
:1001A000B9DF9D93ECDF982F8A95D1F708957FB73B
:1001B0009EE1B7DF90937B0090917D00B2DFDFDF9F
:1001C00090917C00AEDFDBDF90E0ABDFD8DF909179
:1001D0006000A7DFD4DF92E0A4DFD1DF96E0A1DFEB
:1001E000CEDF7FBF40F09FE49CDFC9DF90917B00B2
:1001F000919597DF089595E4F7CF8CDF8EE180939A
:100200007B008913FACF86DFBADF80E089134AC00A
:1002100081DFB5DF80916000891345C07BDF90935B
:100220007D00ADDF77DF90937C00A9DF73DFA7DF70
:10023000B0DF80917B0081956DDF891302C08894C7
:100240000895089408959CB18EE180937B008913F2
:100250002EC060DF94DF80E0891324C05BDF8FDF76
:100260008091600089131FC055DF90937D0087DF68
:1002700051DF90937C0083DF4DDF81DF8ADF809147
:100280007B00819547DF89130AC0889490DF7FBF88
:1002900070F0E8EFF0E0909163002ED0089508949C
:1002A00086DF089537DF36DF35DF73DF33DF08950C
:1002B0009EE190937B0035DF90917E0032DF5FDF1F
:1002C00090917F002EDF5BDF90E02BDF58DF909175
:1002D000600027DF54DF9091620023DF50DF892F19
:1002E000A3E6B0E09D911DDF4ADF8A95D9F7909192
:1002F0007B00919516DF0895C895802D002071F040
:10030000891711F03496F8CF31963196C895702D33
:100310003196C895802DE72FF82F099508940895F8
:00000001FF
